:020000040800F2
:10000000B0130020C10100084972000831660008E1
:10001000797100084D0C0008759A00080000000076
:10002000000000000000000000000000B184000893
:10003000D526000800000000B9720008C18A000837
:10004000DB010008DB010008DB010008DB01000820
:10005000DB010008DB010008DB010008DB01000810
:10006000DB010008DB010008DB010008DB01000800
:10007000CD240008DD240008ED240008FD2400083C
:100080000D2500081D250008DB010008DB01000824
:10009000510C0008610C0008DB010008DB010008BE
:1000A000DB010008DB010008998B0008DB01000878
:1000B000DB010008DB010008DB010008DB010008B0
:1000C000DB010008DB010008DB010008DB010008A0
:1000D000DB010008459A0008559A0008659A000857
:1000E000DB010008DB010008DB010008A98B000828
:1000F000C98B0008B98B0008DB010008DB01000890
:10010000DB010008DB010008DB010008DB0100085F
:10011000F1910008DB010008DB010008DB010008A9
:10012000DB010008DB0100082D250008DB010008C9
:10013000DB010008DB010008DB010008DB0100082F
:10014000710C0008810C0008DB010008DB010008CD
:10015000DB010008DB010008DB010008DB0100080F
:10016000DB010008DB010008DB010008DB010008FF
:10017000DB010008DB010008DB01000800000000D3
:10018000DB010008DB010008A5920008DB01000884
:10019000DB010008DB010008DB010008DB010008CF
:1001A0000000000000000000DB010008DFF80CD0B8
:1001B00000F088FB00480047AD9C0008B013002009
:1001C0000648804706480047FEE7FEE7FEE7FEE7F1
:1001D000FEE7FEE7FEE7FEE7FEE7FEE7858B0008A9
:1001E000AD0100082DE9F05F0546002092469B46D0
:1001F00088460646814640241BE02846414647463D
:10020000224600F00AFA53465A46C01A914110D3CA
:1002100011461846224600F0F1F92D1A67EB010845
:100220004F4622460120002100F0E8F917EB0009B3
:100230004E41201EA4F10104DFDC484631462A4627
:100240004346BDE8F09F40EA01039B0703D009E065
:1002500008C9121F08C0042AFAD203E011F8013BB2
:1002600000F8013B521EF9D27047D2B201E000F80B
:10027000012B491EFBD270470022F6E710B513464A
:100280000A4604461946FFF7F0FF204610BD2DE947
:10029000FE4F804681EA0300C00F0C46009021F01B
:1002A000004123F00045B8EB0200A94105D24046C9
:1002B000214690461C460B46024623F00040104360
:1002C00047D0270DC7F30A00C3F30A510290401A22
:1002D000019040286BDAC3F3130040F4801B0098B0
:1002E000924620B10023D2EB030A63EB0B0B01987B
:1002F0005946C0F14002504600F080F906460D46CE
:1003000050465946019A00F098F910EB08006141F7
:10031000002487EA115284EAE7731A4340D0009A16
:1003200062B3019A012A4FEA075215DC001B61EB08
:1003300002014FF0004202EA0752CDE90042001CE0
:1003400041F5801132462B4600F0CFF903B0BDE8ED
:10035000F08F40462146F9E7001B61EB0201001CCB
:1003600041F5801300185B412018A2F5001747EBF8
:10037000030140EAD570B6196D4111E06D084FEAEE
:10038000360645EAC0754FEA0752001B61EB0201D1
:10039000001C41F5801149084FEA30000019514115
:1003A00032462B4603B0BDE8F04F00F08FB90098FD
:1003B000012240000023D0EB020263EBE0730098BF
:1003C00021464FEAE074B8EB000061EB0401E9E775
:1003D00083F000435BE781F0004158E72DE9FE4FD1
:1003E00081EA030404F0004421F0004100944FF03E
:1003F000000B23F0004350EA01045ED052EA0304EC
:100400005BD0C3F30A54C1F30A552C44A4F2F3346D
:100410000194A0FB0254C1F3130141F48011C3F312
:10042000130343F4801301FB024400FB034E840AD0
:10043000970A44EA815447EA8357A4FB0768029568
:100440008D0A05FB07854FEA932C04FB0C54270506
:10045000029D4FEA065847EA1637B5EB08056EEBE2
:10046000070C870E920E47EA811742EA8312A7FB18
:100470000201B6EB0B0164EB00042B0D43EA0C33D5
:100480005E1844EB1C50DA465146E7FB0201C5F307
:1004900013044FEA0B3343EA14534FEA0432019C2E
:1004A00043EA0603A4F10C040294009CCDE900B4D5
:1004B00000F01BF903B0BDE8F08F00200146F9E71A
:1004C00030B5041E71F1000404DB4FF000444042DB
:1004D00064EB0101141E73F1000405DB1C464FF0B0
:1004E0000043524263EB0403801A994101D3012077
:1004F00030BD002030BD30B40446962308002146AC
:1005000004D0B62330BC002200F0B2B8204600214F
:10051000F8E70EB5C10F80EAE0700844CA07002171
:1005200040F233438DE80E000A460B4600F0DDF83A
:1005300003B000BD70B5C1F30A5201F000450024BC
:10054000C1F3130140F2FF3341F480119A4201DA02
:10055000002070BD40F233439A42A2F2334203DCE2
:10056000524200F05AF800E090402C43F1D0404253
:1005700070BD00F0004230F000400AD0C10D01F51E
:100580006071C0F3160042EA0151C20840071143EE
:10059000704700200146704701F0004330B421F05D
:1005A000004150EA010206D00A0DA2F56072C1F3C3
:1005B0001301002A02DC30BC00207047440F44EADB
:1005C000C104C100E01830BC00EBC25000F047B8D5
:1005D00030B50B46014600202022012409E021FA13
:1005E00002F59D4205D303FA02F5491B04FA02F510
:1005F0002844151EA2F10102F1DC30BD202A04DBE3
:10060000203A00FA02F1002070479140C2F1200325
:1006100020FA03F3194390407047202A04DB203A64
:1006200021FA02F00021704721FA02F3D040C2F112
:1006300020029140084319467047202A06DBCB1759
:10064000203A41FA02F043EAE07306E041FA02F38D
:10065000D040C2F12002914008431946704700295A
:10066000A8BF7047401C490008BF20F00100704738
:1006700010B4B0FA80FC00FA0CF050EA010404BF98
:1006800010BC704749B1CCF1200421FA04F411FAEE
:100690000CF118BF012121430843A3EB0C01CB1D32
:1006A0004FEA00614FEA102042BF002010BC7047A3
:1006B00000EBC35010440029A4BF10BC7047401C7D
:1006C000490008BF20F0010010BC704710B5141E8F
:1006D00073F1000408DA401C41F1000192185B41FB
:1006E0001A4301D120F0010010BD2DE9F04D9246D2
:1006F0009B4611B1B1FA81F202E0B0FA80F22032E9
:100700009046FFF77BFF04460F4640EA0A0041EAA5
:100710000B0153465A46084313D0114653EA0100D1
:1007200019D0C8F140025046FFF777FF05460E4644
:10073000504659464246FFF761FF084305D0012065
:1007400004E020463946BDE8F08D0020054346EA26
:10075000E0762C4337430A986305E40AA0EB0800CF
:100760000022FD0A44EA47540A3002D5002001461F
:10077000E9E7010510196941DDE9084500196941FA
:10078000BDE8F04DA2E72DE9F04D81EA030404F045
:10079000004B21F0004514464FF0000A23F00041C1
:1007A00050EA050220D054EA01021DD0C5F30A57D1
:1007B0000246C5F31303C1F31300C1F30A5640F414
:1007C000801543F48013A7EB0608101BD64608F2E9
:1007D000FD3873EB050002D308F1010801E092181F
:1007E0005B41B8F1000F03DA00200146BDE8F08D4F
:1007F00000204FF48011064684460EE0171B73EB71
:10080000050705D3121B63EB050306434CEA010CF5
:1008100049084FEA300092185B4150EA0107EDD1D8
:1008200052EA030012D082EA040083EA0501084379
:1008300005D0101BAB4106D20122002306E00022A6
:100840004FF0004302E06FF0010253101AEB060074
:100850004CEB085110EB0A0041EB0B01BDE8F04DE9
:10086000FFF734BFC1F30A52C1F3130140F2FF3363
:1008700041F480119A4202DA00200146704740F2AA
:1008800033439A42A2F2334202DC5242FFF7C5BE22
:10089000FFF7B4BE30B5041E71F1000404DB4FF065
:1008A0000044404264EB0101141E73F1000405DBB7
:1008B0001C464FF00043524263EB0403994208BFC9
:1008C000904230BD064C074D06E0E06840F0010361
:1008D00094E8070098471034AC42F6D3FFF76AFC5F
:1008E0001CB800083CB800080EB540F23341029134
:1008F0000021CDE900110A460B46FFF7F6FE03B0D2
:1009000000BD000080B58AB0099040F6B400C2F284
:100910000000039090ED280A09F07AF98DED010AA4
:1009200040F65810C2F20000049090ED280A09F039
:100930006FF9B0EE401A9DED010A30EE010A8DED1F
:10094000020A40F6FC10C2F20000059090ED280A61
:1009500009F05EF9B0EE401A9DED020A30EE010A90
:100960008DED070A40F6A020C2F20000069090ED3F
:10097000280A09F04DF9039B049A05990698B0EEF0
:10098000401A9DED070A30EE010A8DED080A9DED33
:10099000090AB8EEC00A93ED281A9DED082A81EEE7
:1009A000021A20EE010A83ED280A9DED090AB8EE2D
:1009B000C00A92ED281A9DED082A81EE021A20EE57
:1009C000010A82ED280A9DED090AB8EEC00A91EDF0
:1009D000281A9DED082A81EE021A20EE010A81ED07
:1009E000280A9DED090AB8EEC00A90ED281A9DED7F
:1009F000082A81EE021A20EE010A80ED280A0AB0C8
:100A000080BD000080B586B0ADF816008DF81510D9
:100A1000039302920298039A40F25001C2F200013D
:100A20004A6008600298039A40F22001C2F2000175
:100A30004A6008600298039A40F23801C2F200014D
:100A40004A6008609DF8150001460191012809D00F
:100A5000FFE70198022800F0A580FFE7019803282E
:100A60004FD0F0E040F25002C2F20002106851682C
:100A70009368D268C01A9141FFF73DFD00EE100A5D
:100A8000BDF8160001EE100AB8EEC11AB6EE002A43
:100A900021EE021AB4EE410AF1EE10FA30DBFFE764
:100AA00040F24800C2F200000178B1FA81F1490930
:100AB0000170007848B9FFE741F20000C4F202007B
:100AC0000121002203F012FC11E040F24800C2F2C2
:100AD00000000078012809D1FFE741F20000C4F2CC
:100AE00002000122114603F001FCFFE7FFE740F29C
:100AF0005001C2F2000108684A68CA608860FFE7D6
:100B0000A1E040F22002C2F200021068516893682E
:100B1000D268C01A9141FFF7EEFC00EE100ABDF852
:100B2000160001EE100AB8EEC11AB6EE002A21EE48
:100B3000021AB4EE410AF1EE10FA32DBFFE740F29E
:100B40001800C2F200000178B1FA81F14909017080
:100B5000007850B9FFE740F20040C4F202004FF4C1
:100B60000071002203F0C2FB12E040F21800C2F252
:100B70000000007801280AD1FFE740F20040C4F2EB
:100B800002004FF40071002203F0B0FBFFE7FFE723
:100B900040F22001C2F2000108684A68CA60886019
:100BA000FFE750E040F23802C2F2000210685168DC
:100BB0009368D268C01A9141FFF79DFC00EE100ABD
:100BC000BDF8160001EE100AB8EEC11AB6EE002A02
:100BD00021EE021AB4EE410AF1EE10FA32DBFFE721
:100BE00040F23000C2F200000178B1FA81F1490907
:100BF0000170007850B9FFE740F20040C4F20200F3
:100C00004FF48071002203F071FB12E040F23000DB
:100C1000C2F20000007801280AD1FFE740F200404C
:100C2000C4F202004FF48071002203F05FFBFFE783
:100C3000FFE740F23801C2F2000108684A68CA6062
:100C40008860FFE7FFE706B080BD0000FFE7FEE732
:100C500080B540F27810C2F2000002F0C3F880BD07
:100C600080B540F27810C2F2000002F0BBF880BDFF
:100C700080B540F2A010C2F2000002F0B3F880BDCF
:100C800080B540F2A010C2F2000002F0ABF880BDC7
:100C900010B584B0039040F20400C2F20000017865
:100CA00001310170007849F69812C1F699124CF69C
:100CB000CD41CCF6CC4100FB01204FEA700049F653
:100CC0009911C1F69911884204D3FFE7002001F081
:100CD00013FB36E040F20400C2F20000007849F64F
:100CE0009811C1F699114CF6CD42CCF6CC4200FBDE
:100CF00002104FEA7000884222D8FFE740F2040158
:100D0000C2F200010120087001F0F6FA039840F2E7
:100D1000600CC2F2000CBCF90020BCF90230BCF936
:100D20000410BCF906E0EC460824CCF80840CCF8E6
:100D300004E0CCF8001040F2322109F08BF8FFE714
:100D4000FFE7012004B010BDA9B04BF2384CC0F64B
:100D5000000CDCF80000DCF80410DCF80820DCF8FB
:100D60000C30DCF810C0CDF8A0C027932692259156
:100D700024904BF2884CC0F6000CDCF80000DCF844
:100D80000410DCF80820DCF80C30DCF810C0CDF8DA
:100D90008CC02293219220911F904BF24C4CC0F6B4
:100DA000000CDCF80000DCF80410DCF80820DCF8AB
:100DB0000C30DCF810C0CDF878C01D931C921B914C
:100DC0001A904BF29C4CC0F6000CDCF80000DCF8EA
:100DD0000410DCF80820DCF80C30DCF810C0CDF88A
:100DE00064C018931792169115904BF2604CC0F6A0
:100DF000000CDCF80000DCF80410DCF80820DCF85B
:100E00000C30DCF810C0CDF850C013931292119141
:100E100010904BF2B04CC0F6000CDCF80000DCF88F
:100E20000410DCF80820DCF80C30DCF810C0CDF839
:100E30003CC00E930D920C910B904BF2744CC0F68B
:100E4000000CDCF80000DCF80410DCF80820DCF80A
:100E50000C30DCF810C0CDF828C009930892079137
:100E600006904BF2C44CC0F6000CDCF80000DCF835
:100E70000410DCF80820DCF80C30DCF810C0CDF8E9
:100E800014C0049303920291019000218DF8031085
:100E90008DF803109DF80300421C8DF8032024AA4E
:100EA00052F8203040F6B400C2F20000C3649DF84E
:100EB000033003F1010C8DF803C052F823300365B1
:100EC0009DF8033003F1010C8DF803C052F8233074
:100ED00043659DF8033003F1010C8DF803C002EB6C
:100EE000830393ED000ABDEEC00A80ED160A9DF85B
:100EF000033003F1010C8DF803C002EB830292ED85
:100F0000000ABDEEC00A80ED170A8DF803109DF8A7
:100F100003305A1C8DF803201FAA52F82330836730
:100F20009DF8033003F1010C8DF803C052F8233013
:100F3000C3679DF8033003F1010C8DF803C052F82C
:100F40002330C0F880309DF8033003F1010C8DF898
:100F500003C002EB830393ED000ABDEEC00A80EDEF
:100F6000210A9DF8033003F1010C8DF803C002EB58
:100F7000830292ED000ABDEEC00A80ED220A8DF8D0
:100F800003109DF80300421C8DF803201AAA52F8A2
:100F9000203040F65810C2F20000C3649DF80330C0
:100FA00003F1010C8DF803C052F8233003659DF85E
:100FB000033003F1010C8DF803C052F82330436570
:100FC0009DF8033003F1010C8DF803C002EB83039D
:100FD00093ED000ABDEEC00A80ED160A9DF80330BD
:100FE00003F1010C8DF803C002EB830292ED000ABD
:100FF000BDEEC00A80ED170A8DF803109DF803308E
:101000005A1C8DF8032015AA52F8233083679DF8E7
:10101000033003F1010C8DF803C052F82330C3678D
:101020009DF8033003F1010C8DF803C052F8233012
:10103000C0F880309DF8033003F1010C8DF803C037
:1010400002EB830393ED000ABDEEC00A80ED210A96
:101050009DF8033003F1010C8DF803C002EB83020D
:1010600092ED000ABDEEC00A80ED220A8DF8031051
:101070009DF80300421C8DF8032010AA52F820307E
:1010800040F6FC10C2F20000C3649DF8033003F187
:10109000010C8DF803C052F8233003659DF803302E
:1010A00003F1010C8DF803C052F8233043659DF81D
:1010B000033003F1010C8DF803C002EB830393EDC1
:1010C000000ABDEEC00A80ED160A9DF8033003F158
:1010D000010C8DF803C002EB830292ED000ABDEE15
:1010E000C00A80ED170A8DF803109DF803305A1CD2
:1010F0008DF803200BAA52F8233083679DF8033044
:1011000003F1010C8DF803C052F82330C3679DF83A
:10111000033003F1010C8DF803C052F82330C0F8FE
:1011200080309DF8033003F1010C8DF803C002EB11
:10113000830393ED000ABDEEC00A80ED210A9DF8FD
:10114000033003F1010C8DF803C002EB830292ED32
:10115000000ABDEEC00A80ED220A8DF803109DF84A
:101160000300421C8DF8032006AA52F8203040F6F6
:10117000A020C2F20000C3649DF8033003F1010C0B
:101180008DF803C052F8233003659DF8033003F156
:10119000010C8DF803C052F8233043659DF80330ED
:1011A00003F1010C8DF803C002EB830393ED000AF9
:1011B000BDEEC00A80ED160A9DF8033003F1010C64
:1011C0008DF803C002EB830292ED000ABDEEC00A67
:1011D00080ED170A8DF803109DF80320511C8DF83F
:1011E000031001A951F8222082679DF80320531CA7
:1011F0008DF8033051F82220C2679DF80320531C5C
:101200008DF8033051F82220C0F880209DF803208B
:10121000531C8DF8033001EB820292ED000ABDEE03
:10122000C00A80ED210A9DF80320531C8DF803307D
:1012300001EB820191ED000ABDEEC00A80ED220AA9
:10124000012029B07047000080B582B08DF80700FA
:101250009DF8070040F2E401C2F2000181F8280085
:1012600091F8280091F82910884221D0FFE740F634
:10127000B400C2F2000005F083FF40F65810C2F23D
:10128000000005F07DFF40F6FC10C2F2000005F002
:1012900077FF40F6A020C2F2000005F071FF40F297
:1012A000E401C2F2000191F8280081F82900FFE76B
:1012B00002B080BD86B04BF2D84CC0F6000CDCF812
:1012C0000000DCF80410DCF80820DCF80C30DCF856
:1012D00010C0CDF814C00493039202910190002035
:1012E0008DF803008DF803009DF80300411C8DF874
:1012F000031001A951F8202040F2E400C2F20000DE
:1013000082669DF80320531C8DF8033051F822208B
:10131000C2669DF80320531C8DF8033051F822203B
:1013200002679DF80320531C8DF8033001EB820205
:1013300092ED000ABDEEC00A80ED1D0A9DF8032063
:10134000531C8DF8033001EB820191ED000ABDEED4
:10135000C00A80ED1E0A012006B0704780B584B037
:1013600003900398B0F9000000EE100AB8EEC00A2E
:1013700008F04EFC8DED010A0398B0F9020000EE72
:10138000100AB8EEC00A08F043FCB0EE401A9DED1A
:10139000010A30EE010A8DED020A9DED020A9FED71
:1013A000421A20EE010A8DED020A40F6EC30C2F23C
:1013B0000000C06C0399C867039890ED1A1A90ED6D
:1013C0001F0A20EE010A80ED210A039890ED1C1AF5
:1013D00090ED1F0A90ED202A30EE420A20EE010A1D
:1013E000BDEEC00A80ED230A039890ED1B2A90ED14
:1013F0001F0A90ED221A20EE020A30EE010A80ED5B
:10140000220A039890ED220A90ED231AB8EEC11A31
:1014100030EE010A80ED220A0398416F00EE101AA7
:10142000B8EEC00A9DED022A30EE020A494201EEF2
:10143000101AB8EEC11A71EE420A90ED221A07F0A6
:1014400039F8039880ED220A0399C86FC1F880002B
:10145000039890ED210A90ED222A90ED231A30EEA8
:10146000020AB8EEC11A30EE010A80ED240A039A8E
:10147000906F414292ED240ABDEEC00A10EE102A90
:1014800007F070F800EE100AB8EEC00A039880ED7D
:10149000240A039991ED240ABDEEC00A10EE100A49
:1014A000888004B080BD00BFCDCC4C3D80B590B0ED
:1014B0008DF83F0000200D900C900B9040F6EC3022
:1014C000C2F2000090ED130A9FEDD51A20EE010A3A
:1014D00010EE100AFFF74DF841EC100B8DED0C0BE0
:1014E00040F26000C2F20000C07B8008C00738B143
:1014F000FFE740F2E400C2F2000080690B9006E0D2
:1015000040F2E400C2F20000C0690B90FFE740F631
:10151000E041C2F20001B1F9000000EE100AB8EE9D
:10152000C00A9DED0B1A20EE010ABDEEC00A10EEB6
:10153000102A40F2E400C2F200000280B1F9022059
:10154000524200EE102AB8EEC00A9DED0B1A20EEB2
:10155000010ABDEEC00A10EE102A4280B1F90A104D
:1015600000EE101AB8EEC00A9DED0B1A20EE010A2B
:10157000B0EE001A80EE010ABDEEC00A10EE101A9D
:101580008180B0F9040008F0FFFC32285FDBFFE740
:1015900040F2E400C2F20000B0F9000006F09EF84C
:1015A00050B9FFE740F2E400C2F20000B0F90200D7
:1015B00006F094F8A0B1FFE740F2E401C2F20001A6
:1015C000B1F9040000EE100AB8EEC00A9FED961AB9
:1015D00020EE010ABDEEC00A10EE100A888013E06A
:1015E00040F2E401C2F20001B1F9040000EE100A79
:1015F000B8EEC00A9FED8B1A20EE010ABDEEC00ABC
:1016000010EE100A8880FFE740F2E401C2F2000108
:10161000B1F9000000EE100AB8EEC00A9FED831A7F
:1016200020EE010ABDEEC00A10EE100A0880B1F9E2
:10163000020000EE100AB8EEC00A9FED7A1A20EE02
:10164000010ABDEEC00A10EE100A48801DE040F20B
:101650006000C2F20000817B0020B0EBD11F01D1FD
:10166000FFE711E040F26000C2F20000817B012040
:10167000B0EBD11F07D1FFE740F2E400C2F2000057
:10168000FFF76CFEFFE7FFE7FFE740F62360C2F2DB
:101690000000407E8008C007E0B1FFE740F2E400B0
:1016A000C2F20000B0F900100A91B0F902100891DE
:1016B000B0F9040009909DED0C0B51EC100BFEF7F6
:1016C0006BFF0899099A03460A9800EE103A05F054
:1016D00023FB0FE000F0ACF8024640F62361C2F2B3
:1016E0000001487E02F0010200F0FB0040EA8200A7
:1016F0004876FFE740F6B400C2F20000019000F027
:10170000B1F840F65810C2F20000029000F0AAF8BA
:1017100040F6FC10C2F20000039000F0A3F840F67F
:10172000A020C2F20000059000F09CF8019890ED16
:10173000280A08F06DFA02988DED040A90ED280A47
:1017400008F066FA0398B0EE401A9DED040A30EEF8
:10175000010A8DED060A90ED280A08F059FA05985D
:10176000B0EE401A9DED060A30EE010A8DED070A33
:1017700090ED280A08F04CFAB0EE401A9DED070AE9
:1017800030EE010A40F2B000C2F2000080ED000A23
:1017900042F2107005F09CFD40F62360C2F200009A
:1017A0008079C007B8B9FFE740F2E470C2F20000E8
:1017B000B0F84E0000EE100AB8EE400A40F2B00059
:1017C000C2F2000090ED001ABDEEC11A11EE100A2F
:1017D00005F042FE22E040F62360C2F2000080796C
:1017E000C007D0B1FFE740F26000C2F20000C07B4A
:1017F000C0F3800040F2B001C2F2000191ED000A96
:10180000BDEEC00A10EE101A40F29803C2F20003B7
:101810001A685B6806F0E0FEFFE7FFE710B080BDE6
:101820008FE78E3C3333333F9A99193ECDCCCC3E73
:1018300080B540F2E401C2F200010020C4F2600071
:10184000C8614FF07C5008620020C4F2A5304862A5
:101850004FF082408861FFF777FAFFF72BFD0120F8
:1018600080BD000080B582B001900020C4F24840E5
:1018700000900198B0F9081000EE101AB8EEC01AE6
:101880009FED3D2A31EE020A71EE420A90ED0F1AE9
:1018900006F010FE019880ED0F0A019890ED0F0AF6
:1018A000B0F9081001EE101AB8EEC11A30EE410A74
:1018B00080ED230A019890ED1E1A90ED230A20EE88
:1018C000010A80ED250A019890ED1F2A90ED230A68
:1018D00090ED261A20EE020A30EE010A80ED260A6B
:1018E0000198D0F8841000EE101AB8EEC00A4942F0
:1018F00001EE101AF8EEC10A90ED261A06F0DAFD94
:10190000019880ED260A019890ED201A90ED230AA7
:1019100090ED242A30EE420A20EE010ABDEEC00A04
:1019200080ED270A0199D1F88C00C1F89000019848
:1019300090ED250A90ED262A90ED271A30EE020A46
:10194000B8EEC11A30EE010A80ED280A019AD2F8E9
:101950008800414292ED280ABDEEC00A10EE102A1E
:1019600006F000FE00EE100AB8EEC00A019880ED05
:10197000280A02B080BD00BF0000484480B582B094
:10198000019064200090019890ED0F0A90ED101ADC
:10199000B8EEC11A30EE410A80ED180A019890EDB8
:1019A000181A90ED192A9FED6E3A32EE030A72EE84
:1019B000430A06F07FFDBDEEC00A10EE100A00EEED
:1019C000100AB8EEC00A019880ED180A019890ED4F
:1019D000131A90ED180A20EE010A80ED1A0A0198F8
:1019E00090ED142A90ED180A90ED1B1A20EE020AD1
:1019F00030EE010A80ED1B0A0198816D00EE101A8D
:101A0000B8EEC00A494201EE101AF8EEC10A90ED94
:101A10001B1A06F04FFD019880ED1B0A019890ED0E
:101A2000151A90ED180A90ED192A30EE420A20EEB0
:101A3000010ABDEEC00A80ED1C0A0199086E4866D5
:101A4000019890ED1A0A90ED1B2A90ED1C1A30EEC9
:101A5000020AB8EEC11A30EE010A80ED1D0A019AA1
:101A6000D06D414292ED1D0ABDEEC00A10EE102A63
:101A700006F078FD00EE100AB8EEC00A019880ED7D
:101A80001D0A019890ED1D0AB0F9081001EE101A18
:101A9000B8EEC11A30EE410A80ED230A019890EDAC
:101AA0001E1A90ED230A20EE010A80ED250A019806
:101AB00090ED1F2A90ED230A90ED261A20EE020ADF
:101AC00030EE010A80ED260A0198D0F8841000EE6D
:101AD000101AB8EEC00A494201EE101AF8EEC10A17
:101AE00090ED261A06F0E6FC019880ED260A019892
:101AF00090ED201A90ED230A90ED242A30EE420A50
:101B000020EE010ABDEEC00A80ED270A0199D1F846
:101B10008C00C1F89000019890ED250A90ED262ADE
:101B200090ED271A30EE020AB8EEC11A30EE010A23
:101B300080ED280A019AD2F88800414292ED280AE5
:101B4000BDEEC00A10EE102A06F00CFD00EE100AE1
:101B5000B8EEC00A019880ED280A02B080BD00BF2F
:101B60000000C84280B582B08DF8070040F2E40161
:101B7000C2F2000191F8280091F82910884221D082
:101B8000FFE740F6B400C2F2000005F0F9FA40F6B3
:101B90005810C2F2000005F0F3FA40F6FC10C2F251
:101BA000000005F0EDFA40F6A020C2F2000005F0BA
:101BB000E7FA40F2E401C2F2000191F8280081F84E
:101BC0002900FFE79DF80700012829D1FFE740F62B
:101BD000B400C2F2000090ED100AB8EEC00A80ED29
:101BE0000F0A40F65810C2F2000090ED100AB8EE4D
:101BF000C00A80ED0F0A40F6FC10C2F2000090ED22
:101C0000100AB8EEC00A80ED0F0A40F6A020C2F21A
:101C1000000090ED100AB8EEC00A80ED0F0A06E051
:101C20009DF80700022801D1FFE7FFE7FFE740F634
:101C3000B400C2F20000FFF7A1FE40F65810C2F255
:101C40000000FFF79BFE40F6FC10C2F20000FFF719
:101C500095FE40F6A020C2F20000FFF78FFE02B012
:101C600080BD000082B00190009100998888C880F2
:101C700001980178407840EA012000998880009915
:101C80000889488101988178C07840EA012000994C
:101C9000088100990888488001988179C07940EAD4
:101CA0000120009908800099B1F90400B1F90610EB
:101CB000401A10F5805F05DAFFE70099488F013080
:101CC00048870FE00099B1F90400B1F90610401AF5
:101CD000B0F5805F05DDFFE70099488F0138488740
:101CE000FFE7FFE70098B0F93A200021B2F5FA4F7C
:101CF0000846C8BF012012F5FA4FB8BF01210843BA
:101D000068B1FFE70099002048870098B0F90410F7
:101D100000EE101AB8EEC00A80ED0F0AFFE7009837
:101D2000B0F90410B0F93A204FF4B4735A4300EEFE
:101D3000102AB8EEC01A00EE101AB8EEC00A9FEDD5
:101D4000062A20EE020A30EE010ABDEEC00A80ED3E
:101D5000100A02B0704700BF5839343D84B0039078
:101D600002910020ADF8060002998888C880039887
:101D70000178407840EA0120029988800299088918
:101D8000488103988178C07840EA0120029908814F
:101D900040F6EC31C2F2000140F60C50A1F84800C8
:101DA00002998888B1F84410401AADF80600BDF9D0
:101DB0000600B0F5805F07DDFFE7BDF80600A0F57F
:101DC0000050ADF806000DE0BDF9060010F5805F8B
:101DD00007DAFFE7BDF8060000F50050ADF8060091
:101DE000FFE7FFE7BDF9060000EE100AB8EEC00AF3
:101DF0009FED931A20EE010A029880ED120A0299D3
:101E0000B1F90400B1F90610401A10F5805F05DA47
:101E1000FFE70299488F013048870FE00299B1F936
:101E20000400B1F90610401AB0F5805F05DDFFE748
:101E30000299488F01384887FFE7FFE70298B0F919
:101E40003A200021B2F5FA4F0846C8BF012012F52A
:101E5000FA4FB8BF0121084368B1FFE7029900209B
:101E600048870298B0F9041000EE101AB8EEC00AC4
:101E700080ED0F0AFFE70298B0F90410B0F93A209C
:101E8000520300EE102AB8EEC00A01EE101AB8EEA6
:101E9000C11A30EE010ABDEEC00A80ED100A0298A8
:101EA00090F836100020B0EBD11F17D1FFE7039850
:101EB0000179407940EA0120029B93F8362002F034
:101EC0007F0103EB410102F1010C0CF07F0C02F0E9
:101ED0008002624483F83620888142E0029890F8BC
:101EE00036100120B0EBD11F3AD1FFE7029991F8EB
:101EF000360000F07F0001EB40008289888E801A56
:101F0000888603980179407940EA0120029B93F882
:101F1000362002F07F0103EB410102F1010C0CF0CD
:101F20007F0C02F08002624483F836208881029997
:101F300091F8360000F07F0001EB40004289888E66
:101F4000104488860299B1F9340046F26762C6F2FD
:101F5000666250FB02F2D00800EBD2700887FFE700
:101F6000FFE7029890F8360000F07F00142865DB48
:101F7000FFE7029991F8360000F08000133081F8F5
:101F80003600FFE7029890F8362000210846B1EBB2
:101F9000D21F009003D1FFE701200090FFE70098D7
:101FA000C007E0B3FFE7029A92F8361001F07F0015
:101FB00002EB40004B1E03F07F0301F08001194447
:101FC00082F8361082890299888E10448886029899
:101FD00090F8360000F07F0000281FDCFFE7029831
:101FE000B0F90400B0F5805F05DDFFE70299488F86
:101FF00001304887FFE7029991F8360000F07F0032
:1020000001EB40008289888E10448886029991F8FD
:10201000360000F0800081F8360000E0B2E7029957
:1020200091F8360000F0800081F83600029991F8AE
:10203000360040F0800081F83600FFE704B07047BA
:102040005839343D83B0029001910020ADF8020070
:1020500040F62361C2F20001A1F80700029800884F
:10206000000400BA00EE100AB8EEC00A40F2C80040
:10207000C2F2000080ED030A90ED030A9FED1A1AE8
:1020800020EE010A80ED030A02998A78C97841EAB4
:102090000221ADF80210BDF9021000EE101AB8EEE0
:1020A000C00A80ED040A90ED040A9FED101A20EE9C
:1020B000010A80ED040A02998A79C97941EA02216C
:1020C000818290ED040A40F2E471C2F20001B1F89D
:1020D000431001EE101AB8EEC11A30EE410A80ED3D
:1020E000060A03B0704700BFCDCCCC3D0AD7233CD5
:1020F00080B586B08DF817008DF81610ADF8142055
:102100009DF8170000EE100AB8EE400A9FED391A4C
:1021100080EE010A9FED381A20EE010A40F66C604D
:10212000C2F20000049080ED000A90ED001A9FEDCD
:10213000330ADFED330A06F0BDF9049880ED000A9A
:1021400040F26000C2F20000C07BC0F3011003281F
:1021500008D1FFE740F66C61C2F200014FF07E50FB
:102160000860FFE740F6E040C2F2000090F8361049
:102170000020B0EB111F12D0FFE740F6E040C2F2A2
:10218000000090F832100020B0EB111F07D0FFE7DD
:1021900040F28401C2F2000101200860FFE740F232
:1021A000C800C2F200003C2141709DF81710017078
:1021B0009DF81610C170BDF81410323981700121DC
:1021C00041710171B0F90020B0F90230B0F904009A
:1021D00069464FF0080CC1F808C04B60086040F237
:1021E000A010C2F2000040F2FF1107F0C3FD06B0DC
:1021F00080BD00BF0000704200007A4300004843E9
:102200000000344282B001900198017840F26000F1
:10221000C2F200000090017201994978417201995F
:10222000897881720199C978C1720199097901731C
:102230000199497941730199897981730199C97922
:10224000C173018941F30A0140F6E042C2F2000283
:102250001180418941F30A015180818941F30A01CA
:1022600000EE101AB8EEC00A30EE000ABDEEC00A49
:1022700010EE101A5181817B01F0010392F83610A3
:1022800001F00F0141EA031182F83610837B92F8C6
:10229000321003F0080301F00F0141EA430182F814
:1022A0003210C17BC1F3801340F62362C2F20002F8
:1022B000517D01F0FE0119445175C07B8009C007B2
:1022C00038B1FFE740F62361C2F2000100208875B3
:1022D000FFE740F26000C2F20000C07BC008C00708
:1022E00038B1FFE740F62361C2F200010020C87058
:1022F000FFE7012002B0704780B586B08DF8170067
:102300009DF81700002840D1FFE740F68070C2F228
:102310000000009090ED000A9FED1E1A8DED011A4D
:1023200020EE010ABDEEC00A10EE102A47F230502E
:10233000039048F6D021CFF6FF71029106F012F912
:10234000009A9DED011A02990346039840F2600C31
:10235000C2F2000CCDF810C0ACF8003092ED030AC8
:1023600020EE010ABDEEC00A10EE102A06F0FAF8BF
:102370000499488040F29801C2F200010868496857
:10238000FEF7B9F80499486000E0FFE7012006B0C5
:1023900080BD00BF0000C84280B588B08DF81F0026
:1023A0009DF81F0001460691012808D0FFE7069816
:1023B00002282AD0FFE70698032815D03AE040F615
:1023C0002361C2F200010591887E00F0F000013027
:1023D00088769DF81F00FEF737FF0598407D00F0D6
:1023E0000100FFF763F835E040F62361C2F2000117
:1023F000887E00F0F000033088769DF81F00FEF71D
:1024000023FF0120FFF7AEFB24E040F62361C2F278
:1024100000010491887E00F0F000023088769DF87B
:102420001F00FEF711FF0498407D00F00100FFF748
:102430003DF80FE040F62361C2F20001887E00F013
:10244000F00088769DF81F00FEF7FEFE0120FFF7E2
:1024500089FBFFE740F6B400C2F2000090ED280AC5
:10246000BDEEC00A10EE102A40F65810C2F200006D
:1024700090ED280ABDEEC00A10EE103A40F6FC10AE
:10248000C2F2000090ED280ABDEEC00A10EE100A5C
:1024900040F6A021C2F2000191ED280ABDEEC00A6B
:1024A00010EE10CA69464FF0080EC1F808E0C1F8F6
:1024B00004C0086040F2A010C2F200004FF40071A6
:1024C00007F058FC012008B080BD000080B540F244
:1024D000A830C2F2000001F04FFA80BD80B540F292
:1024E000C810C2F2000001F047FA80BD80B540F28A
:1024F0000840C2F2000001F03FFA80BD80B540F212
:102500002820C2F2000001F037FA80BD80B540F209
:10251000E820C2F2000001F02FFA80BD80B540F241
:102520004830C2F2000001F027FA80BD80B540F2C9
:102530008820C2F2000001F01FFA80BD82B0019035
:102540000198007810384AF6AB21CAF6AA21A0FB00
:1025500001100009009000994BF20460C0F60000E1
:10256000405C0199C8650098042807D3FFE70199EA
:102570000868042262F30900886506E0019908688A
:1025800040F2FF3290438865FFE70198806D02B00A
:102590007047000086B0059000208DF81300059864
:1025A000806A03900598806910BBFFE7039802904A
:1025B00003281BD80299DFE801F0020D02180598E4
:1025C00090F82F00C00720B1FFE701208DF813001D
:1025D000FFE70CE00598C06AB0F1C07F04D1FFE7C7
:1025E00001208DF81300FFE701E000E0FFE745E080
:1025F00005988069B0F5005F25D1FFE70398019049
:1026000003281ED80199DFE801F00206021101201B
:102610008DF8130016E0059890F82F00C00720B140
:10262000FFE701208DF81300FFE70BE00598C06A73
:10263000B0F1C07F04D1FFE701208DF81300FFE760
:1026400000E0FFE719E003980090032804D3FFE7B8
:102650000098032804D00EE001208DF813000BE051
:10266000059890F82F00C00720B1FFE701208DF8F2
:102670001300FFE700E0FFE7FFE7FFE79DF8130027
:1026800006B0704784B003900291019200930398C2
:102690000168086820F480200860009803990968A0
:1026A000486003988068402809D1FFE701980399A2
:1026B00009688860029803990968C86008E0029870
:1026C000039909688860019803990968C860FFE761
:1026D00004B070477047000080B540F62360C2F236
:1026E000000041790131417140798F2816DBFFE705
:1026F00040F62361C2F200018F204871087900F092
:10270000FE00087140F29800C2F2000002684368BF
:102710004FF4FA700121FEF775F908E040F62361E5
:10272000C2F20001087940F001000871FFE740F6AD
:102730002360C2F20000B0F807100131A0F80710C2
:10274000B0F80700B0F57A7F18DBFFE740F62361A9
:10275000C2F2000140F29110A1F80700887900F060
:10276000FE00887140F29800C2F2000002684368DF
:102770004FF4FA700121FEF745F908E040F62361B5
:10278000C2F20001887940F001008871FFE740F64D
:102790002360C2F20000818B01318183808BB0F510
:1027A0007A7F0CDBFFE740F62361C2F200014FF4B1
:1027B0007A708883487E40F010004876FFE780BD3D
:1027C00081B0EFF3108072B60090FFE7FEE70000E3
:1027D00084B002900191ADF80220029828B9FFE779
:1027E0004FF6FF70ADF80E0021E0FFE70198411EA3
:1027F0000191B8B1FFE70298411C029100788DF871
:102800000100BDF802109DF801004840C2B24BF231
:102810001A60C0F6000030F8120080EA1120ADF80E
:102820000200E3E7BDF80200ADF80E00FFE7BDF8D7
:102830000E0004B07047000082B00190ADF80210A5
:102840008DF80120FFE7BDF80200411EADF802102F
:1028500098B1FFE79DF8010001994A1C019209789F
:1028600048408DF800009DF800104BF20450C0F66F
:102870000000405C8DF80100E5E79DF8010002B022
:102880007047000084B002900191029890F82000F7
:102890008DF803009DF80300012805D0FFE79DF89F
:1028A000030002280AD1FFE7019A029801684869EB
:1028B0001043486100208DF80F0008E00299486A33
:1028C00040F48020486201208DF80F00FFE79DF85A
:1028D0000F0004B07047000088B006900591049284
:1028E0000393069890F820008DF80700069800687A
:1028F000806800900598806808B9FFE700E0FFE76E
:102900009DF80700012806D0FFE79DF80700022880
:1029100040F08D80FFE79DF80300400700280CD4AD
:10292000FFE79DF803000007002806D4FFE79DF8A5
:102930000300C006002871D5FFE70098C0F30160CE
:1029400002900298032809D3FFE70699486A40F4E9
:102950000000486201208DF81F0071E002990120FB
:102960008840039908600598806868B9FFE7059872
:102970000168C06840EA415006990968029A01EB73
:102980000211C1F880010EE005994A688868C9689B
:1029900040EAC200084306990968029A01EB021155
:1029A000C1F88001FFE70598006906990968029A55
:1029B00001EB0211C1F884010598007D01280CD1BA
:1029C000FFE706980068029900EB0111D1F8840135
:1029D00040F48070C1F88401FFE7049840680699CC
:1029E0000968029A01EB0211C1F88C010498006891
:1029F00006990968029A01EB0211C1F8880106984C
:102A00000068029900EB0111D1F8800140F001004B
:102A1000C1F8800100208DF81F0011E00699486A76
:102A200040F40010486201208DF81F0008E006996C
:102A3000486A40F48020486201208DF81F00FFE7BB
:102A40009DF81F0008B0704786B004900391049869
:102A500000680190049890F820008DF803009DF81C
:102A60000300012806D0FFE79DF80300022840F08C
:102A7000B080FFE746F20040C4F2000001900199E7
:102A8000D1F8000240F00100C1F800020199D1F82C
:102A9000000220F47C50C1F800020398426A0199B8
:102AA000D1F8000240EA0220C1F800020398406910
:102AB00000F01F01012088400290029A0199D1F88C
:102AC0001C029043C1F81C020398C069F0B9FFE7EB
:102AD000029A0199D1F80C029043C1F80C02039AB2
:102AE0009088D168526940EA0140019901EBC20126
:102AF000C1F84002039A10889168526940EA014087
:102B0000019901EBC201C1F84402FFE70398C069D3
:102B100001281ED1FFE7029A0199D1F80C02104357
:102B2000C1F80C02039A90881168526940EA01408A
:102B3000019901EBC201C1F84002039A90899168A2
:102B4000526940EA0140019901EBC201C1F8440217
:102B5000FFE70398806940B9FFE7029A0199D1F82D
:102B600004029043C1F8040207E0029A0199D1F8E7
:102B700004021043C1F80402FFE70398006940B95A
:102B8000FFE7029A0199D1F814029043C1F81402A8
:102B900007E0029A0199D1F814021043C1F8140217
:102BA000FFE70398006A012808D1FFE7029A01991C
:102BB000D1F81C021043C1F81C02FFE70199D1F8BB
:102BC000000220F00100C1F8000200208DF817007B
:102BD00008E00499486A40F48020486201208DF89A
:102BE0001700FFE79DF8170006B0704781B000900E
:102BF00001B0704786B0049003910292019304984B
:102C000090F820008DF803009DF80300012806D0FD
:102C1000FFE79DF80300022840F0D780FFE7039804
:102C200080B9FFE704980068C068800748B9FFE7EB
:102C30000499486A40F40010486201208DF817009A
:102C4000CCE00FE0049800680069800748B9FFE70E
:102C50000499486A40F40010486201208DF817007A
:102C6000BCE0FFE704980068039900EB0110D0F87E
:102C7000B00100F00400029988600298806858B999
:102C8000FFE704980068039900EB0110D0F8B00149
:102C9000400D029908600AE004980068039900EB6F
:102CA0000110D0F8B001C00802994860FFE704980D
:102CB0000068039900EB0110D0F8B00100F00200A9
:102CC0000299C86004980068039900EB0110D0F8DD
:102CD000B40100F00F00029908610498006803999C
:102CE00000EB0110D0F8B40180B2000A02998861AB
:102CF00004980068039900EB0110D0F8B401000CAF
:102D00000299486104980068039900EB0110D0F81B
:102D1000B8010199087004980068039900EB01104C
:102D2000D0F8B801000A0199487004980068039926
:102D300000EB0110D0F8B801000C019988700498DC
:102D40000068039900EB0110D0F8B801000E01995A
:102D5000C87004980068039900EB0110D0F8BC011A
:102D60000199087104980068039900EB0110D0F8EC
:102D7000BC01000A0199487104980068039900EBAE
:102D80000110D0F8BC01000C01998871049800680A
:102D9000039900EB0110D0F8BC01000E0199C87135
:102DA000039838B9FFE704980168C86840F020002C
:102DB000C86006E004980168086940F020000861D6
:102DC000FFE700208DF8170008E00499486A40F4F6
:102DD0008020486201208DF81700FFE79DF817005A
:102DE00006B0704780B58AB0099000200890099815
:102DF0000068406907900998006840680690099843
:102E000000688068059009980068C0680490099877
:102E100000680069039009980068806902909DF835
:102E20001C00C007002800F09480FFE79DF8140004
:102E3000C00758B3FFE709980168012088609DF832
:102E400014008007002804D5FFE7099800F0E4FC8F
:102E50001BE09DF814004007002805D5FFE70898FF
:102E600040F4006008900FE09DF81400000700286F
:102E700005D5FFE7089840F48050089003E00998D2
:102E800000F0C6FCFFE7FFE7FFE7FFE79DF815004E
:102E9000C00760B3FFE7099801684FF4807088604D
:102EA0009DF815008007002804D5FFE7099800F079
:102EB000BBFC1BE09DF815004007002805D5FFE787
:102EC000089840F4005008900FE09DF815000007A6
:102ED000002805D5FFE7089840F48040089003E0FB
:102EE000099800F09DFCFFE7FFE7FFE7FFE79DF88B
:102EF0001600C00760B3FFE7099801684FF48030FF
:102F000088609DF816008007002804D5FFE709981F
:102F100000F092FC1BE09DF816004007002805D544
:102F2000FFE7089840F4004008900FE09DF8160075
:102F30000007002805D5FFE7089840F48030089086
:102F400003E0099800F074FCFFE7FFE7FFE7FFE705
:102F5000FFE79DF81C000007002810D5FFE79DF84B
:102F60001000C006002809D5FFE7089840F400705B
:102F70000890099801681020C860FFE7FFE79DF8F6
:102F80001C00400700280FD5FFE79DF81000000740
:102F9000002808D5FFE7099801680820C86009984B
:102FA00000F0DEFAFFE7FFE79DF81C00800700282D
:102FB0000BD5FFE709980068C068800720B1FFE7DC
:102FC000099800F0D1FAFFE7FFE79DF81C004006E2
:102FD000002810D5FFE79DF80C00C006002809D591
:102FE000FFE7089840F48060089009980168102075
:102FF0000861FFE7FFE79DF81C00800600280FD559
:10300000FFE79DF80C000007002808D5FFE70998A6
:10301000016808200861099800F0A8FBFFE7FFE7B6
:103020009DF81C00C00600280BD5FFE70998006832
:103030000069800720B1FFE7099800F09BFBFFE7DC
:10304000FFE79DF81E00800700280FD5FFE79DF8D9
:103050001800C006002808D5FFE70998016810206D
:103060004860099800F08AFBFFE7FFE79DF81E0023
:10307000C00778B1FFE79DF818000007002808D5C1
:10308000FFE70998016808204860099800F0D8FB1C
:10309000FFE7FFE79DF81D000006002840F18D8046
:1030A000FFE79DF818004007002840F18180FFE706
:1030B0009DF81D00C00750B1FFE79DF80800C0074C
:1030C00028B1FFE7089840F001000890FFE79DF85D
:1030D0001D00800700280BD5FFE79DF8080080073A
:1030E000002805D5FFE7089840F002000890FFE7A8
:1030F0009DF81D00400700280BD5FFE79DF808004C
:103100004007002805D5FFE7089840F00400089024
:10311000FFE79DF81D000007002848D5FFE79DF850
:10312000080010F0700F42D0FFE7029800F0700026
:1031300001460191102814D0FFE70198202815D0EE
:10314000FFE70198302816D0FFE70198402817D0F4
:10315000FFE70198502818D0FFE70198602819D0A0
:103160001DE0089840F00800089019E0089840F029
:103170001000089014E0089840F0200008900FE03C
:10318000089840F0400008900AE0089840F080005D
:10319000089005E0089840F48070089000E0FFE790
:1031A00009980168886920F070008861FFE7FFE7EF
:1031B0000998016804204860FFE7089848B1FFE7D4
:1031C000089A0999486A104348620998FFF70EFD6A
:1031D000FFE70AB080BD000080B584B0029002987D
:1031E00020B9FFE701208DF80F00E0E0029890F889
:1031F000200020B9FFE7029800F0DEF8FFE7029810
:103200000168086840F00100086001F087F801904B
:10321000FFE7029800684068C007A8B9FFE701F01F
:103220007DF80199401A0B280DD3FFE70299486AEF
:1032300040F4003048620299052081F82000012006
:103240008DF80F00B3E0E4E702980168086820F009
:103250000200086001F062F80190FFE70298006840
:1032600040688007002815D5FFE701F057F801995D
:10327000401A0B280DD3FFE70299486A40F400304A
:1032800048620299052081F8200001208DF80F0086
:103290008DE0E3E70298007E012807D1FFE702985E
:1032A0000168086840F08000086006E00298016844
:1032B000086820F080000860FFE70298407E01283F
:1032C00007D1FFE702980168086840F040000860F5
:1032D00006E002980168086820F040000860FFE7F7
:1032E0000298807E012807D1FFE7029801680868EC
:1032F00040F02000086006E002980168086820F0AD
:1033000020000860FFE70298C07E012807D1FFE790
:1033100002980168086820F01000086006E0029832
:103320000168086840F010000860FFE70298007F1D
:10333000012807D1FFE702980168086840F00800FB
:10334000086006E002980168086820F0080008603C
:10335000FFE70298407F012807D1FFE70298016844
:10336000086840F00400086006E0029801680868F8
:1033700020F004000860FFE7029B19685A6898680B
:10338000D3F80CC040EA0C00D3F810C040EA0C009F
:103390005B691843013A1043C861029900204862F2
:1033A000029A012182F820108DF80F00FFE79DF8A6
:1033B0000F0004B080BD000080B592B011900020D5
:1033C00010900F900E900D900C901198006846F29E
:1033D0000041C4F20001884252D1FFE740F2780078
:1033E000C2F200000168013101600068012812D1B9
:1033F000FFE7FFE700200B9043F64000C4F2020015
:10340000016841F000710160006800F000700B90ED
:103410000B98FFE7FFE7FFE700200A9043F6300034
:10342000C4F20200016841F008010160006800F088
:1034300008000A900A98FFE703200C9002210D91E2
:10344000002105910E910F900920109040F6004048
:10345000C4F202000CA900F039FD059A1420049072
:10346000114600F0F3FF049800F0E6FF059A1520DE
:103470000690114600F0EAFF069800F0DDFF6DE0CF
:103480001198006846F60001C4F20001884264D138
:10349000FFE7FFE70020099043F64000C4F2020076
:1034A000016841F080610160006800F0806009906F
:1034B0000998FFE740F27800C2F20000016801318C
:1034C00001600068012812D1FFE7FFE700200890A3
:1034D00043F64000C4F20200016841F0007101604F
:1034E000006800F0007008900898FFE7FFE7FFE72A
:1034F0000020079043F63000C4F20200016841F05A
:1035000002010160006800F0020007900798FFE7E1
:1035100060200C9002200D90002002900E9003205D
:103520000F900920109040F20040C4F202000CA954
:1035300000F0CCFC029A40200190114600F086FF7A
:10354000019800F079FF029A41200390114600F0A3
:103550007DFF039800F070FFFFE7FFE712B080BD2A
:1035600081B0009001B0704780B584B0039003989B
:1035700040F27811C2F20001884263D1FFE740F2C5
:103580007810C2F2000040F64C62C2F2000240F62F
:103590004263C2F200030021FFF72CFB40F62360D8
:1035A000C2F20000417E0120B0EB911F40D1FFE745
:1035B00040F64C60C2F200000068029040F209211F
:1035C000884218D0FFE7029840F20B21884206D0CB
:1035D000FFE7029840F22121884218D01EE040F611
:1035E000EC30C2F20000011D40F64260C2F2000061
:1035F000FEF7B4FB1BE040F64430C2F20000011DB0
:1036000040F64260C2F20000FEF7A8FB0FE040F671
:103610004260C2F20000FEF7F5FD08E040F2B4019E
:10362000C2F20001088820F460700880FFE7FFE71D
:1036300040F2B401C2F20001088820F460708030CA
:10364000088090E0039840F2A011C2F20001884285
:1036500040F08880FFE740F2A010C2F2000040F680
:103660004C62C2F2000240F64263C2F20003002143
:10367000FFF7C0FA40F62360C2F20000417E01204D
:10368000B0EB911F64D1FFE740F64C60C2F200003E
:103690000068019040F20121884216D0FFE70198AE
:1036A00040F2022188421BD0FFE7019840F203213B
:1036B000884220D0FFE70198B0F5017F26D0FFE7D0
:1036C0000198B0F5107F2CD038E040F64260C2F28D
:1036D000000040F6B401C2F20001FEF7C3FA36E082
:1036E00040F64260C2F2000040F65811C2F20001FA
:1036F000FEF7B8FA2BE040F64260C2F2000040F656
:10370000FC11C2F20001FEF7ADFA20E040F6426083
:10371000C2F2000040F6A021C2F20001FEF7A2FAB8
:1037200015E040F2C800C2F2000000F1080140F6C6
:103730004260C2F20000FEF785FC08E040F2B401EE
:10374000C2F20001088820F460700880FFE7FFE7FC
:1037500040F2B401C2F20001488820F46070803069
:103760004880FFE7FFE704B080BD000081B0009013
:1037700001B0704781B0009001B0704781B00090F7
:1037800001B0704780B584B00290029890F8200094
:1037900001282FD1FFE70299022081F8200002982A
:1037A0000168086820F00100086000F0B7FD019092
:1037B000FFE7029800684068C007A8B1FFE700F083
:1037C000ADFD0199401A0B280DD3FFE70299486A15
:1037D00040F4003048620299052081F82000012061
:1037E0008DF80F000FE0E4E70299002048628DF8A1
:1037F0000F0008E00299486A40F400204862012066
:103800008DF80F00FFE79DF80F0004B080BD0000A9
:1038100081B0009001B0704781B0009001B0704756
:1038200081B0009001B0704781B0009001B0704746
:1038300081B0009001B0704781B0009001B0704736
:1038400081B0009001B0704780B584B002900298BA
:10385000806D019000F062FD0090029890F83500B4
:1038600002280DD0FFE7029980204865FFE7029902
:10387000002081F83400FFE701208DF80F0055E0AB
:1038800002980168086820F0160008600298016834
:10389000486920F0800048610298006C20B9FFE779
:1038A0000298806C38B1FFE702980168086820F040
:1038B00008000860FFE702980168086820F001002E
:1038C0000860FFE7029800680068C007C8B1FFE71A
:1038D00000F024FD0099401A062811D3FFE7029951
:1038E000202048650299032081F83500FFE70299FE
:1038F000002081F83400FFE703208DF80F0015E069
:10390000E0E70298C16D3F208840019988600299E4
:10391000012081F83500FFE70299002081F834008A
:10392000FFE7FFE700208DF80F00FFE79DF80F008D
:1039300004B080BD82B00090009890F83500022855
:1039400007D0FFE700998020486501208DF8070027
:103950000EE00099052081F835000098016808689C
:1039600020F001000860FFE700208DF80700FFE766
:103970009DF8070002B0704780B586B00590002022
:10398000039040F20800C2F20000006848F2B5114E
:10399000C1F64E31A0FB0110800A02900598806D9F
:1039A000019001980068049004980599C96DC84079
:1039B000000700281AD5FFE705980068006840074F
:1039C000002812D5FFE705980168086820F0040078
:1039D00008600598C16D08208840019988600599A4
:1039E000486D40F001004865FFE7FFE7049805993E
:1039F000C96DC840C007A0B1FFE7059800684069DD
:103A0000000600280CD5FFE70598C16D012088400D
:103A1000019988600599486D40F002004865FFE70C
:103A2000FFE704980599C96DC8404007002814D5E0
:103A3000FFE7059800680068800700280CD5FFE7BD
:103A40000598C16D04208840019988600599486DEA
:103A500040F004004865FFE7FFE704980599C96D49
:103A6000C840C006002847D5FFE7059800680068F1
:103A7000000700283FD5FFE70598C16D102088405A
:103A800001998860059800680068400300281AD5ED
:103A9000FFE70598006800680003002809D4FFE7E5
:103AA0000598006C20B1FFE70598016C8847FFE797
:103AB00008E00598806C20B1FFE70598816C884785
:103AC000FFE7FFE716E0059800680068C0050028DA
:103AD00007D4FFE705980168086820F0080008602F
:103AE000FFE70598006C20B1FFE70598016C884757
:103AF000FFE7FFE7FFE7FFE704980599C96DC840B6
:103B00008006002840F18D80FFE705980068006876
:103B1000C006002840F18480FFE70598C16D202091
:103B2000884001998860059890F83500052834D1BF
:103B3000FFE705980168086820F0160008600598FE
:103B40000168486920F0800048610598006C20B940
:103B5000FFE70598806C38B1FFE7059801680868B1
:103B600020F008000860FFE70598C16D3F208840FD
:103B7000019988600599012081F83500FFE70599D2
:103B8000002081F83400FFE70598006D20B1FFE7C1
:103B90000598016D8847FFE77BE00598006800689D
:103BA000400300281AD5FFE7059800680068000365
:103BB000002809D4FFE70598406C20B1FFE705987D
:103BC000416C8847FFE708E00598C06B20B1FFE72C
:103BD0000598C16B8847FFE7FFE720E0059800687C
:103BE0000068C005002811D4FFE70598016808683F
:103BF00020F0100008600599012081F83500FFE7EA
:103C00000599002081F83400FFE7FFE70598C06BB5
:103C100020B1FFE70598C16B8847FFE7FFE7FFE7A3
:103C2000FFE70598406DA0B3FFE70598406DC0071A
:103C300030B3FFE70599052081F835000598016844
:103C4000086820F001000860FFE703980130039046
:103C50000299884201D9FFE707E0FFE7059800686D
:103C60000068C0070028F0D1FFE70599012081F81E
:103C70003500FFE70599002081F83400FFE7FFE7F2
:103C80000598C06C20B1FFE70598C16C8847FFE735
:103C9000FFE706B080BD000080B586B0049000202C
:103CA000039000F03BFB0290049820B9FFE701204D
:103CB0008DF81700A3E00498406A08B1FFE7FFE71A
:103CC0000499022081F83500FFE70499002081F86B
:103CD0003400FFE704980168086820F001000860DC
:103CE000FFE7049800680068C00790B1FFE700F0A4
:103CF00015FB0299401A06280AD3FFE704992020F1
:103D000048650499032081F835008DF8170076E0A6
:103D1000E7E70498006800680390039848F23F01C1
:103D2000CFF2100108400390049900914868D1F83F
:103D300008C0CB680A6940EA0C00184310434A697E
:103D400010438A691043CA691043096A0143039802
:103D5000084303900498406A042808D1FFE70499B7
:103D6000C86A096B0143039808430390FFE703986F
:103D700004990968086004980068406903900398F2
:103D800020F0070003900498416A039808430390C9
:103D90000498406A04281AD1FFE70498816A0398BE
:103DA000084303900498C06A80B1FFE70498FEF7C7
:103DB000F1FB50B1FFE704994020486504990120C8
:103DC00081F835008DF8170019E0FFE7FFE7039849
:103DD0000499096848610498FEF7B0FB01900498C3
:103DE000C16D3F2088400199886004990020486592
:103DF000049A012182F835108DF81700FFE79DF82D
:103E0000170006B080BD000080B588B0069005910F
:103E10000492039300208DF80B000698806D0190AA
:103E2000FFE7069890F83400012804D1FFE702204C
:103E30008DF81F0045E00699012081F83400FFE766
:103E4000FFE7069890F8350001282BD1FFE7069987
:103E5000022081F8350006990020486506980599EA
:103E6000049A039BFEF70EFC0698C16D3F20884024
:103E70000199886006980168086840F0160008609B
:103E80000698006C38B1FFE706980168086840F0B2
:103E900008000860FFE706980168086840F0010024
:103EA000086009E0FFE70699002081F83400FFE789
:103EB00002208DF80B00FFE79DF80B008DF81F0026
:103EC000FFE79DF81F0008B080BD000090B00F9084
:103ED0000E9100200C900B900A900D90FFE70D982A
:103EE0000F2800F2E881FFE70D99012088400C902F
:103EF0000E9800680C9908400B900B980C9988421A
:103F000040F0D481FFE70E98406800F003000128DC
:103F100007D0FFE70E98406800F0030002282FD179
:103F2000FFE70F9880680A900D984100032000FA7F
:103F300001F10A9888430A900E98C0680D994900CB
:103F400000FA01F10A9808430A900A980F998860CC
:103F50000F9840680A900D99012000FA01F10A9823
:103F600088430A900E984068C0F300100D9900FA3B
:103F700001F10A9808430A900A980F994860FFE7F0
:103F80000E98406800F00300032818D0FFE70F9850
:103F9000C0680A900D984100032000FA01F10A98C8
:103FA00088430A900E9880680D99490000FA01F143
:103FB0000A9808430A900A980F99C860FFE70E987C
:103FC000406800F00300022826D1FFE70F980D9902
:103FD0006FF0030202EA51010844006A0A900D984A
:103FE00000F0070081000F2000FA01F10A988843D1
:103FF0000A900E9800690D9901F00701890000FAF6
:1040000001F10A9808430A900A980F990D9B02EA59
:10401000530211440862FFE70F9800680A900D9858
:104020004100032000FA01F10A9888430A900E9893
:10403000406800F003000D99490000FA01F10A9868
:1040400008430A900A980F9908600E9880798007B3
:10405000002800F02A81FFE7FFE70020099043F6DF
:104060004400C4F20200016841F48041016000682C
:1040700000F4804009900998FFE70D9820F00300B4
:1040800043F60801C4F2010140580A900D9800F06F
:10409000030081000F2000FA01F10A9888430A907A
:1040A0000F980021C4F20201884203D1FFE70020EB
:1040B00008907AE00F9840F20041C4F20201884271
:1040C00003D1FFE7012007906CE00F9840F6000154
:1040D000C4F20201884203D1FFE7022006905EE0AD
:1040E0000F9840F60041C4F20201884203D1FFE775
:1040F0000320059050E00F9841F20001C4F2020144
:10410000884203D1FFE70420049042E00F9841F277
:104110000041C4F20201884203D1FFE70520039069
:1041200034E00F9841F60001C4F20201884203D145
:10413000FFE70620029026E00F9841F60041C4F206
:104140000201884203D1FFE70720019018E00F9891
:1041500042F20001C4F20201884203D1FFE70820C5
:1041600000900AE00F9942F20042C4F202020A20D3
:10417000914208BF09200090FFE700980190FFE7F7
:1041800001980290FFE702980390FFE703980490DC
:10419000FFE704980590FFE705980690FFE706986B
:1041A0000790FFE707980890FFE70898C0B20D99BD
:1041B00001F00301890000FA01F10A9808430A900E
:1041C0000A980D9921F0030143F60802C4F2010296
:1041D000885043F60840C4F2010000680A900B9929
:1041E0000A9888430A900E988079C006002805D561
:1041F000FFE70B990A9808430A90FFE70A9843F6ED
:104200000841C4F20101086043F60C40C4F2010009
:1042100000680A900B990A9888430A900E98807952
:104220008006002805D5FFE70B990A9808430A90F5
:10423000FFE70A9843F60C41C4F20101086043F617
:104240000440C4F2010000680A900B990A98884360
:104250000A900E9880798007002805D5FFE70B9912
:104260000A9808430A90FFE70A9843F60441C4F20B
:104270000101086043F60040C4F2010000680A90A2
:104280000B990A9888430A900E988079C00728B144
:10429000FFE70B990A9808430A90FFE70A9843F64C
:1042A0000041C4F201010860FFE7FFE7FFE70D9856
:1042B00001300D9013E610B07047000082B00190FD
:1042C000ADF8021001980069BDF80210084204D050
:1042D000FFE701208DF8010003E000208DF80100C8
:1042E000FFE79DF8010002B07047000082B0019026
:1042F000ADF802108DF801209DF8010028B1FFE70C
:10430000BDF802000199886105E0BDF802000004D3
:1043100001998861FFE702B07047000040F67C70A9
:10432000C2F200000068704740F21000C2F20000C4
:10433000027840F67C71C2F20001086810440860FF
:104340007047000080B543F60041C4F202010868DE
:1043500040F400700860086840F4806008600868F5
:1043600040F480700860032000F08AF80F2000F00D
:1043700005F800F03BF8002080BD000080B582B059
:10438000009040F20800C2F20000006840F2100104
:10439000C2F200010A784FF47A71B1FBF2F1B0FB7E
:1043A000F1F000F0A5FD20B1FFE701208DF8070036
:1043B00018E000980F280DD8FFE700994FF0FF3064
:1043C000002200F043F8009840F21401C2F200010C
:1043D000086003E001208DF8070003E000208DF85D
:1043E0000700FFE79DF8070002B080BD82B0FFE73D
:1043F0000020019043F64400C4F20200016841F439
:1044000080410160006800F4804001900198FFE75E
:10441000FFE70020009043F64000C4F2020001686C
:1044200041F080510160006800F0805000900098D9
:10443000FFE702B07047000080B582B08DF807003A
:104440009DF9070005F084FB02B080BD80B586B001
:104450008DF81700049103920020029005F090FB64
:1044600002909DF91700019002980499039A02F0B6
:10447000EDFE0146019805F08BFB06B080BD000003
:1044800080B582B00190019805F0A4FB02B080BD18
:1044900080B584B002900191029820B9FFE7012015
:1044A0008DF80F0021E1019843F60041C4F20201AA
:1044B000096801F00F01884212D9FFE7019943F61C
:1044C0000040C4F202000170006800F00F00019982
:1044D000884204D0FFE701208DF80F0005E1FFE7D7
:1044E00002980078800700282AD5FFE70298007814
:1044F0004007002809D5FFE743F60801C4F202018E
:10450000086840F4E0500860FFE702980078000770
:10451000002809D5FFE743F60801C4F20201086844
:1045200040F460400860FFE743F60801C4F202016E
:10453000086820F0F000029A926810430860FFE7D4
:1045400002980078C00700286ED0FFE70298406804
:10455000012811D1FFE743F60000C4F20200006811
:1045600000F400310020B0EB514F04D1FFE70120EF
:104570008DF80F00B9E02CE002984068022805D0C1
:10458000FFE702984068032811D1FFE743F60000D7
:10459000C4F20200006800F000710020B0EB516F1F
:1045A00004D1FFE701208DF80F009EE010E043F6F4
:1045B0000000C4F20200006800F002010020B0EB2D
:1045C000510F04D1FFE701208DF80F008DE0FFE7C8
:1045D000FFE743F60801C4F20201086820F0030077
:1045E000029A526810430860FFF798FE0090FFE7B8
:1045F00043F60800C4F20200006800F00C000299C3
:104600004968B0EB810F0ED0FFE7FFF787FE0099F6
:10461000401A41F28931884204D3FFE703208DF824
:104620000F0062E0E4E7FFE7019843F60041C4F2BF
:104630000201096801F00F01884212D2FFE70199D7
:1046400043F60040C4F202000170006800F00F0061
:104650000199884204D0FFE701208DF80F0044E063
:10466000FFE702980078400700280CD5FFE743F6E3
:104670000801C4F20201086820F4E050029AD268EE
:1046800010430860FFE702980078000700280DD566
:10469000FFE743F60801C4F20201086820F4604015
:1046A000029A126940EAC2000860FFE700F04CF885
:1046B00043F60801C4F202010968C9B20A094BF2C3
:1046C000EC41C0F60001895CC84040F20801C2F22A
:1046D0000001086040F21400C2F200000068FFF719
:1046E0004DFE00208DF80F00FFE79DF80F0004B08D
:1046F00080BD000040F20800C2F200000068704770
:1047000080B5FFF7F7FF43F60801C4F2020109681C
:10471000C1F382224BF2FC41C0F60001895CC84023
:1047200080BD000080B5FFF7E5FF43F60801C4F245
:104730000201096889B24A0B4BF2FC41C0F6000144
:10474000895CC84080BD000080B586B0002005901F
:1047500004900390029043F60800C4F2020000683F
:1047600000F00C000146019140B1FFE701980428D8
:104770000AD0FFE7019808280CD04FE042F2004031
:10478000C0F2F40002904FE041F60030C0F2B700F2
:10479000029049E043F60400C4F20200016801F00F
:1047A0003F01059100684002002813D5FFE743F65A
:1047B0000400C4F202000068C0F3881041F6003122
:1047C000C0F2B701A0FB0101059A0023FBF70AFD27
:1047D000049012E043F60400C4F202000068C0F343
:1047E000881042F20041C0F2F401A0FB0101059AD9
:1047F0000023FBF7F7FC0490FFE743F60400C4F244
:104800000200006800F44031022000EBD130039038
:1048100004980399B0FBF1F0029005E042F20040E9
:10482000C0F2F4000290FFE7029806B080BD0000DD
:1048300080B586B00490049820B9FFE701208DF878
:10484000170050E304980078C007002800F0A58006
:10485000FFE743F60800C4F20200006800F00C0015
:10486000042813D0FFE743F60800C4F202000068F2
:1048700000F00C0008281ED1FFE743F60400C4F244
:10488000020000684002002815D5FFE743F600004B
:10489000C4F20200006800F400310020B0EB514F78
:1048A00008D0FFE70498406820B9FFE701208DF8A1
:1048B000170018E370E0FFE704984068B0F5803F08
:1048C00009D1FFE743F60001C4F20201086840F491
:1048D0008030086020E004984068B0F5A02F0DD12A
:1048E000FFE743F60001C4F20201086840F48020AB
:1048F0000860086840F4803008600CE043F600016E
:10490000C4F20201086820F480300860086820F4CE
:1049100080200860FFE7FFE7FFE704984068E8B100
:10492000FFE7FFF7FBFC0390FFE743F60000C4F24C
:104930000200006800F400310020B0EB514F0CD1B0
:10494000FFE7FFF7EBFC0399401A652804D3FFE764
:1049500003208DF81700C6E2E7E71CE0FFF7DEFC56
:104960000390FFE743F60000C4F20200006800F481
:1049700000310020B0EB514F0CD0FFE7FFF7CEFC29
:104980000399401A652804D3FFE703208DF8170028
:10499000A9E2E7E7FFE7FFE7FFE704980078800771
:1049A000002840F19680FFE743F60800C4F20200B9
:1049B000006810F00C0F13D0FFE743F60800C4F2B4
:1049C0000200006800F00C0008282CD1FFE743F635
:1049D0000400C4F2020000684002002823D4FFE76C
:1049E00043F60000C4F20200006800F0020100205B
:1049F000B0EB510F09D0FFE70498C068012804D03C
:104A0000FFE701208DF817006DE243F60001C4F2C4
:104A10000201086820F0F800049A126940EAC20016
:104A20000860FFE754E00498C06870B3FFE7002116
:104A3000C4F2472101200860FFF770FC0390FFE7F4
:104A400043F60000C4F20200006800F002010020FA
:104A5000B0EB510F0CD1FFE7FFF760FC0399401A50
:104A6000032804D3FFE703208DF817003BE2E7E7B4
:104A700043F60001C4F20201086820F0F800049A2D
:104A8000126940EAC200086021E00021C4F2472117
:104A900000200860FFF742FC0390FFE743F60000A8
:104AA000C4F20200006800F002010020B0EB510FD8
:104AB0000CD0FFE7FFF732FC0399401A032804D318
:104AC000FFE703208DF817000DE2E7E7FFE7FFE7B8
:104AD000FFE704980078000700284BD5FFE704980B
:104AE000406918B3FFE740F68061C4F24721012016
:104AF0000860FFF713FC0390FFE743F67400C4F26D
:104B00000200006800F002010020B0EB510F0CD150
:104B1000FFE7FFF703FC0399401A032804D3FFE7DC
:104B200003208DF81700DEE1E7E722E040F6806120
:104B3000C4F2472100200860FFF7F0FB0390FFE775
:104B400043F67400C4F20200006800F00201002085
:104B5000B0EB510F0CD0FFE7FFF7E0FB0399401AD1
:104B6000032804D3FFE703208DF81700BBE1E7E734
:104B7000FFE7FFE7049800784007002840F1CE8067
:104B8000FFE700208DF8070043F64000C4F2020062
:104B90000068C000002815D4FFE7FFE70020009060
:104BA00043F64000C4F20200016841F08051016008
:104BB000006800F0805000900098FFE701208DF819
:104BC0000700FFE747F20000C4F200000068C005DC
:104BD000002822D4FFE747F20001C4F20001086870
:104BE00040F480700860FFF799FB0390FFE747F2FD
:104BF0000000C4F200000068C00500280CD4FFE7E4
:104C0000FFF78CFB0399401A032804D3FFE7032026
:104C10008DF8170067E1EAE7FFE7FFE7049880688F
:104C2000012809D1FFE743F67001C4F202010868C8
:104C300040F0010008601FE00498806805280DD14D
:104C4000FFE743F67001C4F20201086840F0040077
:104C50000860086840F0010008600CE043F670014D
:104C6000C4F20201086820F001000860086820F022
:104C700004000860FFE7FFE7FFE704988068F8B1E9
:104C8000FFE7FFF74BFB0390FFE743F67000C4F22A
:104C90000200006800F002010020B0EB510F0ED1BD
:104CA000FFE7FFF73BFB0399401A41F28931884245
:104CB00004D3FFE703208DF8170014E1E5E71EE0B9
:104CC000FFF72CFB0390FFE743F67000C4F20200ED
:104CD000006800F002010020B0EB510F0ED0FFE79A
:104CE000FFF71CFB0399401A41F28931884204D333
:104CF000FFE703208DF81700F5E0E5E7FFE79DF8F3
:104D00000700012809D1FFE743F64001C4F2020180
:104D1000086820F080500860FFE7FFE7049880698A
:104D2000002800F0DC80FFE743F60800C4F2020030
:104D3000006800F00C00082800F08580FFE7049868
:104D4000806902285CD1FFE76021C4F2472100207E
:104D50000860FFF7E3FA0390FFE743F60000C4F2B0
:104D60000200006800F000710020B0EB516F0CD021
:104D7000FFE7FFF7D3FA0399401A032804D3FFE7AC
:104D800003208DF81700AEE0E7E70499C869D1F871
:104D900020C04B6A8A6A40EA0C0040EA8310D203C2
:104DA0004FF6FF739A43A2F580321043C96A40EA76
:104DB000016043F60401C4F2020108606021C4F2FC
:104DC000472101200860FFF7A9FA0390FFE743F6A7
:104DD0000000C4F20200006800F000710020B0EB97
:104DE000516F0CD1FFE7FFF799FA0399401A032896
:104DF00004D3FFE703208DF8170074E0E7E721E014
:104E00006021C4F2472100200860FFF787FA039071
:104E1000FFE743F60000C4F20200006800F00071F2
:104E20000020B0EB516F0CD0FFE7FFF777FA039942
:104E3000401A032804D3FFE703208DF8170052E03F
:104E4000E7E7FFE74AE004988069012804D1FFE71B
:104E500001208DF8170046E043F60400C4F202007A
:104E60000068029004988069012831D0FFE7029819
:104E700000F480000499C969884229D1FFE70298AB
:104E800000F03F000499096A884221D1FFE70298A7
:104E900047F6C07108400499496AB0EB811F17D1E9
:104EA000FFE7029800F440300499896AC9034FF67D
:104EB000FF729143A1F58031884209D1FFE7029842
:104EC00000F070600499C96AB0EB016F04D0FFE78D
:104ED00001208DF8170006E0FFE7FFE7FFE700205D
:104EE0008DF81700FFE79DF8170006B080BD0000A1
:104EF00080B582B00190019803F0B8FD02B080BD8A
:104F000081B0009001B0704781B0009001B070474F
:104F100080B582B00090009820B9FFE701208DF89D
:104F200007003FE0009890F83D0040B9FFE7009986
:104F3000002081F83C00009800F038F8FFE7009965
:104F4000022081F83D00009951F8040B03F044FE63
:104F50000099012081F84600FFE70099012081F8BF
:104F60003E00009981F83F00009981F840000099C7
:104F700081F84100FFE7FFE70099012081F8420036
:104F8000009981F84300009981F84400009981F864
:104F90004500FFE70099012081F83D0000208DF8D1
:104FA0000700FFE79DF8070002B080BD80B58AB01A
:104FB00009900998006844F60001C4F20101884292
:104FC0001BD1FFE7FFE70020089043F64400C4F23E
:104FD0000200016841F480210160006800F4802033
:104FE00008900898FFE71A20049000221146FFF766
:104FF0002DFA0498FFF720FA6EE00998006841F650
:105000000001C4F2000188421BD1FFE7FFE7002046
:10501000079043F64000C4F20200016841F04001ED
:105020000160006800F0400007900798FFE72B2020
:10503000039000221146FFF709FA0398FFF7FCF9E5
:1050400049E00998006841F60041C4F20001884235
:105050001BD1FFE7FFE70020069043F64000C4F2B3
:105060000200016841F080010160006800F08000EA
:1050700006900698FFE72C20029000221146FFF7C9
:10508000E5F90298FFF7D8F924E00998006842F2A0
:105090000001C4F2000188421BD1FFE7FFE70020B6
:1050A000059043F64000C4F20200016841F48071AB
:1050B0000160006800F4807005900598FFE72D20DE
:1050C000019000221146FFF7C1F90198FFF7B4F9EA
:1050D000FFE7FFE7FFE7FFE70AB080BD83B001907D
:1050E000019890F83D00012804D0FFE701208DF8D9
:1050F0000B006AE00199022081F83D0001980168E7
:10510000C86840F00100C860019800680021C4F23E
:10511000010188423CD0FFE701980068B0F1804F60
:1051200036D0FFE70198006840F20041C4F2000168
:1051300088422DD0FFE70198006840F60001C4F2D4
:105140000001884224D0FFE70198006840F6004142
:10515000C4F2000188421BD0FFE70198006840F2CA
:105160000041C4F20101884212D0FFE701980068B3
:1051700044F20001C4F20101884209D0FFE701981E
:10518000006841F60001C4F20001884212D1FFE735
:1051900001980068806800F00700009000980628D9
:1051A00007D0FFE701980168086840F00100086037
:1051B000FFE706E001980168086840F00100086018
:1051C000FFE700208DF80B00FFE79DF80B0003B010
:1051D0007047000080B586B00490039100208DF8E0
:1051E0000B00FFE7049890F83C00012804D1FFE78A
:1051F00002208DF81700ABE00499012081F83C00F3
:10520000FFE7FFE70499022081F83D000498006859
:1052100080680190019820F077000190019820F4B7
:105220007F4001900198049909688860039800689C
:105230000090002872D0FFE7009810286ED0FFE79A
:10524000009820286AD0FFE70098302866D0FFE752
:105250000098402855D0FFE70098502837D0FFE746
:105260000098602840D0FFE7009870280BD0FFE737
:105270000098B0F5805F05D0FFE70098B0F5005FBB
:1052800016D052E055E004980068039B5A6899686C
:10529000DB6803F06FFD0498006880680190019856
:1052A00040F077000190019804990968886040E017
:1052B00004980068039B5A689968DB6803F05AFDFC
:1052C00004980168886840F48040886031E0049860
:1052D0000068039A5168D26803F038FF04980068A8
:1052E000502103F061FD24E004980068039A51689E
:1052F000D26803F053FF04980068602103F054FD66
:1053000017E004980068039A5168D26803F01EFF02
:1053100004980068402103F047FD0AE00498006803
:105320000399096803F040FD03E001208DF80B00AC
:10533000FFE70499012081F83D00FFE70499002070
:1053400081F83C00FFE79DF80B008DF81700FFE7A0
:105350009DF8170006B080BD81B0009001B0704785
:1053600080B582B0019001980068006900F00201E8
:105370000020B0EB510F28D0FFE701980068C0680B
:1053800000F002010020B0EB510F1DD0FFE70198A3
:1053900001686FF002000861019901200877019807
:1053A00000688069800720B1FFE70198FFF7D4FF0C
:1053B00006E0019800F04AF9019800F03FFAFFE793
:1053C000019900200877FFE7FFE70198006800696E
:1053D00000F004010020B0EB910F29D0FFE7019805
:1053E0000068C06800F004010020B0EB910F1ED0EF
:1053F000FFE7019801686FF004000861019902203D
:10540000087701980068806910F4407F04D0FFE7B6
:105410000198FFF7A1FF06E0019800F017F9019845
:1054200000F00CFAFFE7019900200877FFE7FFE79B
:1054300001980068006900F008010020B0EBD10F6E
:1054400028D0FFE701980068C06800F0080100203C
:10545000B0EBD10F1DD0FFE7019801686FF0080095
:10546000086101990420087701980068C0698007E5
:1054700020B1FFE70198FFF76FFF06E0019800F009
:10548000E5F8019800F0DAF9FFE7019900200877C4
:10549000FFE7FFE701980068006900F010010020B5
:1054A000B0EB111F29D0FFE701980068C06800F039
:1054B00010010020B0EB111F1ED0FFE7019801681A
:1054C0006FF01000086101990820087701980068C2
:1054D000C06910F4407F04D0FFE70198FFF73CFF5C
:1054E00006E0019800F0B2F8019800F0A7F9FFE794
:1054F000019900200877FFE7FFE70198006800693D
:10550000C00780B1FFE701980068C068C00748B1D4
:10551000FFE7019801686FF001000861019800F051
:1055200091F9FFE7FFE7019800680069C1B2002028
:10553000B0EBD11F13D0FFE701980068C068C1B27B
:105540000020B0EBD11F09D0FFE7019801686FF090
:10555000800008610198FFF7D3FCFFE7FFE701989F
:105560000068006900F040010020B0EB911F14D0EA
:10557000FFE701980068C06800F040010020B0EB30
:10558000911F09D0FFE7019801686FF040000861A2
:10559000019800F007FAFFE7FFE70198006800694B
:1055A00000F020010020B0EB511F14D0FFE701985C
:1055B0000068C06800F020010020B0EB511F09D046
:1055C000FFE7019801686FF0200008610198FFF77C
:1055D0009BFCFFE7FFE702B080BD000080B588B00C
:1055E0000790002006900590049003900290079881
:1055F000006841F60001C4F20001884223D1FFE7B0
:10560000FFE70020019043F63000C4F20200016879
:1056100041F002010160006800F002000190019871
:10562000FFE74FF480400290022003900020049096
:1056300005900920069040F20040C4F2020002A941
:10564000FEF744FCFFE708B080BD000081B0009089
:1056500001B0704780B586B004900391029200209B
:105660008DF80700FFE7049890F83C00012804D16A
:10567000FFE702208DF8170089E00499012081F8E6
:105680003C00FFE7FFE7029800900C2800F27080D2
:105690000099DFE801F0076D6D6D206D6D6D3A6D5D
:1056A0006D6D530004980068039903F093FB049810
:1056B0000168886940F00800886104980168886979
:1056C00020F00400886103980269049801688869E1
:1056D0001043886150E004980068039903F0F0FBE0
:1056E00004980168886940F4006088610498016842
:1056F000886920F4806088610398026904980168D1
:10570000886940EA0220886136E0049800680399BD
:1057100003F050FC04980168C86940F00800C861B3
:1057200004980168C86920F00400C8610398026900
:1057300004980168C8691043C8611DE004980068B6
:10574000039903F0B1FC04980168C86940F4006053
:10575000C86104980168C86920F48060C861039832
:10576000026904980168C86940EA0220C86103E040
:1057700001208DF80700FFE7FFE70499002081F87A
:105780003C00FFE79DF807008DF81700FFE79DF844
:10579000170006B080BD000080B582B00090009870
:1057A00020B9FFE701208DF807003FE0009890F84E
:1057B0003D0040B9FFE70099002081F83C000098C7
:1057C00000F038F8FFE70099022081F83D000099C9
:1057D00051F8040B03F000FA0099012081F846000B
:1057E000FFE70099012081F83E00009981F83F0011
:1057F000009981F84000009981F84100FFE7FFE738
:105800000099012081F84200009981F84300009935
:1058100081F84400009981F84500FFE700990120D4
:1058200081F83D0000208DF80700FFE79DF8070094
:1058300002B080BD81B0009001B0704781B000908F
:1058400001B0704780B582B00190019840F2684184
:10585000C2F20001884203D1FFE7FCF73DFFFFE7FA
:10586000019840F2B041C2F20001884227D1FFE71F
:1058700040F29801C2F200010A684868013240F122
:1058800000000A60486040F62360C2F20000407EDB
:105890000009C00790B1FFE740F62360C2F20000A4
:1058A000417E0120B0EB911F07D1FFE740F2A0102D
:1058B000C2F20000FBF7ECF9FFE7FFE7FFE7019812
:1058C000006841F60041C4F2000188422ED1FFE792
:1058D00040F62360C2F20000417E0120B0EB911F30
:1058E00023D1FFE740F26000C2F20000C07BC0F3AA
:1058F0000110FCF751FD40F2E472C2F2000292F88E
:105900004E00D2F84A1000EE101ABDEEC00A10EE9A
:10591000101AB2F8462044F6D353C1F26203A2FB38
:1059200003329209FCF7E4FBFFE7FFE7019840F23E
:105930004051C2F20001884231D1FFE740F62360B6
:10594000C2F20000407E0009C00738B3FFE740F212
:105950000040C4F202004FF48071FEF7AFFC014634
:1059600040F27C00C2F200000170007801280AD1E8
:10597000FFE740F20040C4F202004FF480710022C1
:10598000FEF7B4FC09E040F20040C4F202004FF41C
:1059900080710122FEF7AAFCFFE7FFE7FFE702B0F4
:1059A00080BD000081B0009001B0704782B00190CE
:1059B000ADF8021002B0704780B584B003900020AB
:1059C0000290039800684069C0B2C0090290039831
:1059D00090F83D00212823D1FFE7029800B3FFE7AC
:1059E000FFE7FFE70398006850E8050F20F080000C
:1059F0000190FFE701990398026842E8051000282A
:105A0000F0D1FFE7FFE70398406B28B1FFE7039869
:105A1000406BFDF719FFFFE7039803F0D1FDFFE7A7
:105A2000039800684069C0F380100290039890F8D2
:105A30003E00222823D1FFE7029800B3FFE7FFE7EB
:105A4000FFE70398006850E8050F20F04000009041
:105A5000FFE700990398026842E805100028F0D19A
:105A6000FFE7FFE70398806B28B1FFE70398806B9F
:105A7000FDF7EAFEFFE7039803F044FDFFE700208F
:105A800004B080BD81B0009001B0704780B592B085
:105A90001190119800680068109011980068C06813
:105AA0000F901198006840690E9000200D900C90A6
:105AB000109800F00F000D900D9888B9FFE79DF841
:105AC0004000800600280AD5FFE79DF83C008006CC
:105AD000002804D5FFE7119803F08EFDE3E1FFE70E
